{
  "_format": "hh-sol-artifact-1",
  "contractName": "StakingERC721A",
  "sourceName": "contracts/StakingERC721A.sol",
  "abi": [
    {
      "inputs": [],
      "stateMutability": "nonpayable",
      "type": "constructor"
    },
    {
      "inputs": [],
      "name": "ApprovalCallerNotOwnerNorApproved",
      "type": "error"
    },
    {
      "inputs": [],
      "name": "ApprovalQueryForNonexistentToken",
      "type": "error"
    },
    {
      "inputs": [],
      "name": "ApproveToCaller",
      "type": "error"
    },
    {
      "inputs": [],
      "name": "BalanceQueryForZeroAddress",
      "type": "error"
    },
    {
      "inputs": [],
      "name": "InvalidQueryRange",
      "type": "error"
    },
    {
      "inputs": [],
      "name": "MintERC2309QuantityExceedsLimit",
      "type": "error"
    },
    {
      "inputs": [],
      "name": "MintToZeroAddress",
      "type": "error"
    },
    {
      "inputs": [],
      "name": "MintZeroQuantity",
      "type": "error"
    },
    {
      "inputs": [],
      "name": "OwnerQueryForNonexistentToken",
      "type": "error"
    },
    {
      "inputs": [],
      "name": "OwnershipNotInitializedForExtraData",
      "type": "error"
    },
    {
      "inputs": [],
      "name": "TransferCallerNotOwnerNorApproved",
      "type": "error"
    },
    {
      "inputs": [],
      "name": "TransferFromIncorrectOwner",
      "type": "error"
    },
    {
      "inputs": [],
      "name": "TransferToNonERC721ReceiverImplementer",
      "type": "error"
    },
    {
      "inputs": [],
      "name": "TransferToZeroAddress",
      "type": "error"
    },
    {
      "inputs": [],
      "name": "URIQueryForNonexistentToken",
      "type": "error"
    },
    {
      "anonymous": false,
      "inputs": [
        {
          "indexed": true,
          "internalType": "address",
          "name": "owner",
          "type": "address"
        },
        {
          "indexed": true,
          "internalType": "address",
          "name": "approved",
          "type": "address"
        },
        {
          "indexed": true,
          "internalType": "uint256",
          "name": "tokenId",
          "type": "uint256"
        }
      ],
      "name": "Approval",
      "type": "event"
    },
    {
      "anonymous": false,
      "inputs": [
        {
          "indexed": true,
          "internalType": "address",
          "name": "owner",
          "type": "address"
        },
        {
          "indexed": true,
          "internalType": "address",
          "name": "operator",
          "type": "address"
        },
        {
          "indexed": false,
          "internalType": "bool",
          "name": "approved",
          "type": "bool"
        }
      ],
      "name": "ApprovalForAll",
      "type": "event"
    },
    {
      "anonymous": false,
      "inputs": [
        {
          "indexed": true,
          "internalType": "uint256",
          "name": "fromTokenId",
          "type": "uint256"
        },
        {
          "indexed": false,
          "internalType": "uint256",
          "name": "toTokenId",
          "type": "uint256"
        },
        {
          "indexed": true,
          "internalType": "address",
          "name": "from",
          "type": "address"
        },
        {
          "indexed": true,
          "internalType": "address",
          "name": "to",
          "type": "address"
        }
      ],
      "name": "ConsecutiveTransfer",
      "type": "event"
    },
    {
      "anonymous": false,
      "inputs": [
        {
          "indexed": true,
          "internalType": "address",
          "name": "from",
          "type": "address"
        },
        {
          "indexed": true,
          "internalType": "address",
          "name": "to",
          "type": "address"
        },
        {
          "indexed": true,
          "internalType": "uint256",
          "name": "tokenId",
          "type": "uint256"
        }
      ],
      "name": "Transfer",
      "type": "event"
    },
    {
      "inputs": [
        {
          "internalType": "address",
          "name": "to",
          "type": "address"
        },
        {
          "internalType": "uint256",
          "name": "tokenId",
          "type": "uint256"
        }
      ],
      "name": "approve",
      "outputs": [],
      "stateMutability": "nonpayable",
      "type": "function"
    },
    {
      "inputs": [
        {
          "internalType": "address",
          "name": "owner",
          "type": "address"
        }
      ],
      "name": "balanceOf",
      "outputs": [
        {
          "internalType": "uint256",
          "name": "",
          "type": "uint256"
        }
      ],
      "stateMutability": "view",
      "type": "function"
    },
    {
      "inputs": [
        {
          "internalType": "uint256",
          "name": "tokenId",
          "type": "uint256"
        }
      ],
      "name": "explicitOwnershipOf",
      "outputs": [
        {
          "components": [
            {
              "internalType": "address",
              "name": "addr",
              "type": "address"
            },
            {
              "internalType": "uint64",
              "name": "startTimestamp",
              "type": "uint64"
            },
            {
              "internalType": "bool",
              "name": "burned",
              "type": "bool"
            },
            {
              "internalType": "uint24",
              "name": "extraData",
              "type": "uint24"
            }
          ],
          "internalType": "struct IERC721A.TokenOwnership",
          "name": "",
          "type": "tuple"
        }
      ],
      "stateMutability": "view",
      "type": "function"
    },
    {
      "inputs": [
        {
          "internalType": "uint256[]",
          "name": "tokenIds",
          "type": "uint256[]"
        }
      ],
      "name": "explicitOwnershipsOf",
      "outputs": [
        {
          "components": [
            {
              "internalType": "address",
              "name": "addr",
              "type": "address"
            },
            {
              "internalType": "uint64",
              "name": "startTimestamp",
              "type": "uint64"
            },
            {
              "internalType": "bool",
              "name": "burned",
              "type": "bool"
            },
            {
              "internalType": "uint24",
              "name": "extraData",
              "type": "uint24"
            }
          ],
          "internalType": "struct IERC721A.TokenOwnership[]",
          "name": "",
          "type": "tuple[]"
        }
      ],
      "stateMutability": "view",
      "type": "function"
    },
    {
      "inputs": [
        {
          "internalType": "uint256",
          "name": "tokenId",
          "type": "uint256"
        }
      ],
      "name": "getApproved",
      "outputs": [
        {
          "internalType": "address",
          "name": "",
          "type": "address"
        }
      ],
      "stateMutability": "view",
      "type": "function"
    },
    {
      "inputs": [
        {
          "internalType": "address",
          "name": "owner",
          "type": "address"
        },
        {
          "internalType": "address",
          "name": "operator",
          "type": "address"
        }
      ],
      "name": "isApprovedForAll",
      "outputs": [
        {
          "internalType": "bool",
          "name": "",
          "type": "bool"
        }
      ],
      "stateMutability": "view",
      "type": "function"
    },
    {
      "inputs": [
        {
          "internalType": "uint256",
          "name": "_quantity",
          "type": "uint256"
        }
      ],
      "name": "mint",
      "outputs": [],
      "stateMutability": "payable",
      "type": "function"
    },
    {
      "inputs": [],
      "name": "name",
      "outputs": [
        {
          "internalType": "string",
          "name": "",
          "type": "string"
        }
      ],
      "stateMutability": "view",
      "type": "function"
    },
    {
      "inputs": [
        {
          "internalType": "uint256",
          "name": "tokenId",
          "type": "uint256"
        }
      ],
      "name": "ownerOf",
      "outputs": [
        {
          "internalType": "address",
          "name": "",
          "type": "address"
        }
      ],
      "stateMutability": "view",
      "type": "function"
    },
    {
      "inputs": [
        {
          "internalType": "address",
          "name": "from",
          "type": "address"
        },
        {
          "internalType": "address",
          "name": "to",
          "type": "address"
        },
        {
          "internalType": "uint256",
          "name": "tokenId",
          "type": "uint256"
        }
      ],
      "name": "safeTransferFrom",
      "outputs": [],
      "stateMutability": "nonpayable",
      "type": "function"
    },
    {
      "inputs": [
        {
          "internalType": "address",
          "name": "from",
          "type": "address"
        },
        {
          "internalType": "address",
          "name": "to",
          "type": "address"
        },
        {
          "internalType": "uint256",
          "name": "tokenId",
          "type": "uint256"
        },
        {
          "internalType": "bytes",
          "name": "_data",
          "type": "bytes"
        }
      ],
      "name": "safeTransferFrom",
      "outputs": [],
      "stateMutability": "nonpayable",
      "type": "function"
    },
    {
      "inputs": [
        {
          "internalType": "address",
          "name": "operator",
          "type": "address"
        },
        {
          "internalType": "bool",
          "name": "approved",
          "type": "bool"
        }
      ],
      "name": "setApprovalForAll",
      "outputs": [],
      "stateMutability": "nonpayable",
      "type": "function"
    },
    {
      "inputs": [
        {
          "internalType": "bytes4",
          "name": "interfaceId",
          "type": "bytes4"
        }
      ],
      "name": "supportsInterface",
      "outputs": [
        {
          "internalType": "bool",
          "name": "",
          "type": "bool"
        }
      ],
      "stateMutability": "view",
      "type": "function"
    },
    {
      "inputs": [],
      "name": "symbol",
      "outputs": [
        {
          "internalType": "string",
          "name": "",
          "type": "string"
        }
      ],
      "stateMutability": "view",
      "type": "function"
    },
    {
      "inputs": [
        {
          "internalType": "uint256",
          "name": "tokenId",
          "type": "uint256"
        }
      ],
      "name": "tokenURI",
      "outputs": [
        {
          "internalType": "string",
          "name": "",
          "type": "string"
        }
      ],
      "stateMutability": "view",
      "type": "function"
    },
    {
      "inputs": [
        {
          "internalType": "address",
          "name": "owner",
          "type": "address"
        }
      ],
      "name": "tokensOfOwner",
      "outputs": [
        {
          "internalType": "uint256[]",
          "name": "",
          "type": "uint256[]"
        }
      ],
      "stateMutability": "view",
      "type": "function"
    },
    {
      "inputs": [
        {
          "internalType": "address",
          "name": "owner",
          "type": "address"
        },
        {
          "internalType": "uint256",
          "name": "start",
          "type": "uint256"
        },
        {
          "internalType": "uint256",
          "name": "stop",
          "type": "uint256"
        }
      ],
      "name": "tokensOfOwnerIn",
      "outputs": [
        {
          "internalType": "uint256[]",
          "name": "",
          "type": "uint256[]"
        }
      ],
      "stateMutability": "view",
      "type": "function"
    },
    {
      "inputs": [],
      "name": "totalSupply",
      "outputs": [
        {
          "internalType": "uint256",
          "name": "",
          "type": "uint256"
        }
      ],
      "stateMutability": "view",
      "type": "function"
    },
    {
      "inputs": [
        {
          "internalType": "address",
          "name": "from",
          "type": "address"
        },
        {
          "internalType": "address",
          "name": "to",
          "type": "address"
        },
        {
          "internalType": "uint256",
          "name": "tokenId",
          "type": "uint256"
        }
      ],
      "name": "transferFrom",
      "outputs": [],
      "stateMutability": "nonpayable",
      "type": "function"
    }
  ],
  "bytecode": "0x60806040523480156200001157600080fd5b50604080518082018252600b81526a4361726c69746f3732314160a81b6020808301918252835180850190945260048452634344333360e01b908401528151919291620000619160029162000084565b5080516200007790600390602084019062000084565b5050600080555062000167565b82805462000092906200012a565b90600052602060002090601f016020900481019282620000b6576000855562000101565b82601f10620000d157805160ff191683800117855562000101565b8280016001018555821562000101579182015b8281111562000101578251825591602001919060010190620000e4565b506200010f92915062000113565b5090565b5b808211156200010f576000815560010162000114565b600181811c908216806200013f57607f821691505b602082108114156200016157634e487b7160e01b600052602260045260246000fd5b50919050565b61168c80620001776000396000f3fe6080604052600436106101145760003560e01c806370a08231116100a0578063a22cb46511610064578063a22cb4651461030f578063b88d4fde1461032f578063c23dc68f1461034f578063c87b56dd1461037c578063e985e9c51461039c57600080fd5b806370a082311461027a5780638462151c1461029a57806395d89b41146102c757806399a2557a146102dc578063a0712d68146102fc57600080fd5b806318160ddd116100e757806318160ddd146101ca57806323b872dd146101ed57806342842e0e1461020d5780635bbb21771461022d5780636352211e1461025a57600080fd5b806301ffc9a71461011957806306fdde031461014e578063081812fc14610170578063095ea7b3146101a8575b600080fd5b34801561012557600080fd5b506101396101343660046113b9565b6103bc565b60405190151581526020015b60405180910390f35b34801561015a57600080fd5b5061016361040e565b604051610145919061155b565b34801561017c57600080fd5b5061019061018b3660046113f3565b6104a0565b6040516001600160a01b039091168152602001610145565b3480156101b457600080fd5b506101c86101c33660046112af565b6104e4565b005b3480156101d657600080fd5b50600154600054035b604051908152602001610145565b3480156101f957600080fd5b506101c8610208366004611177565b610584565b34801561021957600080fd5b506101c8610228366004611177565b610715565b34801561023957600080fd5b5061024d61024836600461130c565b610735565b60405161014591906114e1565b34801561026657600080fd5b506101906102753660046113f3565b610803565b34801561028657600080fd5b506101df610295366004611129565b61080e565b3480156102a657600080fd5b506102ba6102b5366004611129565b61085d565b6040516101459190611523565b3480156102d357600080fd5b5061016361096d565b3480156102e857600080fd5b506102ba6102f73660046112d9565b61097c565b6101c861030a3660046113f3565b610afa565b34801561031b57600080fd5b506101c861032a366004611273565b610b07565b34801561033b57600080fd5b506101c861034a3660046111b3565b610b9d565b34801561035b57600080fd5b5061036f61036a3660046113f3565b610be7565b604051610145919061156e565b34801561038857600080fd5b506101636103973660046113f3565b610c5f565b3480156103a857600080fd5b506101396103b7366004611144565b610cf0565b60006301ffc9a760e01b6001600160e01b0319831614806103ed57506380ac58cd60e01b6001600160e01b03198316145b806104085750635b5e139f60e01b6001600160e01b03198316145b92915050565b60606002805461041d906115d9565b80601f0160208091040260200160405190810160405280929190818152602001828054610449906115d9565b80156104965780601f1061046b57610100808354040283529160200191610496565b820191906000526020600020905b81548152906001019060200180831161047957829003601f168201915b5050505050905090565b60006104ab82610d1e565b6104c8576040516333d1c03960e21b815260040160405180910390fd5b506000908152600660205260409020546001600160a01b031690565b60006104ef82610803565b9050336001600160a01b038216146105285761050b8133610cf0565b610528576040516367d9dca160e11b815260040160405180910390fd5b60008281526006602052604080822080546001600160a01b0319166001600160a01b0387811691821790925591518593918516917f8c5be1e5ebec7d5bd14f71427d1e84f3dd0314c0f7b2291e5b200ac8c7c3b92591a4505050565b600061058f82610d45565b9050836001600160a01b0316816001600160a01b0316146105c25760405162a1148160e81b815260040160405180910390fd5b60008281526006602052604090208054338082146001600160a01b0388169091141761060f576105f28633610cf0565b61060f57604051632ce44b5f60e11b815260040160405180910390fd5b6001600160a01b03851661063657604051633a954ecd60e21b815260040160405180910390fd5b801561064157600082555b6001600160a01b038681166000908152600560205260408082208054600019019055918716808252919020805460010190554260a01b17600160e11b17600085815260046020526040902055600160e11b83166106cc57600184016000818152600460205260409020546106ca5760005481146106ca5760008181526004602052604090208490555b505b83856001600160a01b0316876001600160a01b03167fddf252ad1be2c89b69c2b068fc378daa952ba7f163c4a11628f55a4df523b3ef60405160405180910390a4505050505050565b61073083838360405180602001604052806000815250610b9d565b505050565b805160609060008167ffffffffffffffff8111156107555761075561162a565b6040519080825280602002602001820160405280156107a757816020015b6040805160808101825260008082526020808301829052928201819052606082015282526000199092019101816107735790505b50905060005b8281146107fb576107d68582815181106107c9576107c9611614565b6020026020010151610be7565b8282815181106107e8576107e8611614565b60209081029190910101526001016107ad565b509392505050565b600061040882610d45565b60006001600160a01b038216610837576040516323d3ad8160e21b815260040160405180910390fd5b506001600160a01b031660009081526005602052604090205467ffffffffffffffff1690565b6060600080600061086d8561080e565b905060008167ffffffffffffffff81111561088a5761088a61162a565b6040519080825280602002602001820160405280156108b3578160200160208202803683370190505b5090506108e060408051608081018252600080825260208201819052918101829052606081019190915290565b60005b838614610961576108f381610da6565b915081604001511561090457610959565b81516001600160a01b03161561091957815194505b876001600160a01b0316856001600160a01b03161415610959578083878060010198508151811061094c5761094c611614565b6020026020010181815250505b6001016108e3565b50909695505050505050565b60606003805461041d906115d9565b606081831061099e57604051631960ccad60e11b815260040160405180910390fd5b6000806109aa60005490565b9050808411156109b8578093505b60006109c38761080e565b9050848610156109e257858503818110156109dc578091505b506109e6565b5060005b60008167ffffffffffffffff811115610a0157610a0161162a565b604051908082528060200260200182016040528015610a2a578160200160208202803683370190505b50905081610a3d579350610af392505050565b6000610a4888610be7565b905060008160400151610a59575080515b885b888114158015610a6b5750848714155b15610ae757610a7981610da6565b9250826040015115610a8a57610adf565b82516001600160a01b031615610a9f57825191505b8a6001600160a01b0316826001600160a01b03161415610adf5780848880600101995081518110610ad257610ad2611614565b6020026020010181815250505b600101610a5b565b50505092835250909150505b9392505050565b610b043382610de2565b50565b6001600160a01b038216331415610b315760405163b06307db60e01b815260040160405180910390fd5b3360008181526007602090815260408083206001600160a01b03871680855290835292819020805460ff191686151590811790915590519081529192917f17307eab39ab6107e8899845ad3d59bd9653f200f220920489ca2b5937696c31910160405180910390a35050565b610ba8848484610584565b6001600160a01b0383163b15610be157610bc484848484610e00565b610be1576040516368d2bf6b60e11b815260040160405180910390fd5b50505050565b6040805160808082018352600080835260208084018290528385018290526060808501839052855193840186528284529083018290529382018190529281018390529091506000548310610c3b5792915050565b610c4483610da6565b9050806040015115610c565792915050565b610af383610ef7565b6060610c6a82610d1e565b610c8757604051630a14c4b560e41b815260040160405180910390fd5b6000610c9e60408051602081019091526000815290565b9050805160001415610cbf5760405180602001604052806000815250610af3565b80610cc984610f2c565b604051602001610cda929190611475565b6040516020818303038152906040529392505050565b6001600160a01b03918216600090815260076020908152604080832093909416825291909152205460ff1690565b6000805482108015610408575050600090815260046020526040902054600160e01b161590565b600081600054811015610d8d57600081815260046020526040902054600160e01b8116610d8b575b80610af3575060001901600081815260046020526040902054610d6d565b505b604051636f96cda160e11b815260040160405180910390fd5b60408051608081018252600080825260208201819052918101829052606081019190915260008281526004602052604090205461040890610f7b565b610dfc828260405180602001604052806000815250610fc3565b5050565b604051630a85bd0160e11b81526000906001600160a01b0385169063150b7a0290610e359033908990889088906004016114a4565b602060405180830381600087803b158015610e4f57600080fd5b505af1925050508015610e7f575060408051601f3d908101601f19168201909252610e7c918101906113d6565b60015b610eda573d808015610ead576040519150601f19603f3d011682016040523d82523d6000602084013e610eb2565b606091505b508051610ed2576040516368d2bf6b60e11b815260040160405180910390fd5b805181602001fd5b6001600160e01b031916630a85bd0160e11b149050949350505050565b604080516080810182526000808252602082018190529181018290526060810191909152610408610f2783610d45565b610f7b565b604080516080810191829052607f0190826030600a8206018353600a90045b8015610f6957600183039250600a81066030018353600a9004610f4b565b50819003601f19909101908152919050565b604080516080810182526001600160a01b038316815260a083901c67ffffffffffffffff166020820152600160e01b831615159181019190915260e89190911c606082015290565b610fcd8383611030565b6001600160a01b0383163b15610730576000548281035b610ff76000868380600101945086610e00565b611014576040516368d2bf6b60e11b815260040160405180910390fd5b818110610fe457816000541461102957600080fd5b5050505050565b6000546001600160a01b03831661105957604051622e076360e81b815260040160405180910390fd5b816110775760405163b562e8dd60e01b815260040160405180910390fd5b6001600160a01b038316600081815260056020526040902080546801000000000000000185020190554260a01b6001841460e11b1717600082815260046020526040902055808281015b6040516001830192906001600160a01b038716906000907fddf252ad1be2c89b69c2b068fc378daa952ba7f163c4a11628f55a4df523b3ef908290a48082106110c15760005550505050565b80356001600160a01b038116811461112457600080fd5b919050565b60006020828403121561113b57600080fd5b610af38261110d565b6000806040838503121561115757600080fd5b6111608361110d565b915061116e6020840161110d565b90509250929050565b60008060006060848603121561118c57600080fd5b6111958461110d565b92506111a36020850161110d565b9150604084013590509250925092565b600080600080608085870312156111c957600080fd5b6111d28561110d565b935060206111e181870161110d565b935060408601359250606086013567ffffffffffffffff8082111561120557600080fd5b818801915088601f83011261121957600080fd5b81358181111561122b5761122b61162a565b61123d601f8201601f1916850161157c565b9150808252898482850101111561125357600080fd5b808484018584013760008482840101525080935050505092959194509250565b6000806040838503121561128657600080fd5b61128f8361110d565b9150602083013580151581146112a457600080fd5b809150509250929050565b600080604083850312156112c257600080fd5b6112cb8361110d565b946020939093013593505050565b6000806000606084860312156112ee57600080fd5b6112f78461110d565b95602085013595506040909401359392505050565b6000602080838503121561131f57600080fd5b823567ffffffffffffffff8082111561133757600080fd5b818501915085601f83011261134b57600080fd5b81358181111561135d5761135d61162a565b8060051b915061136e84830161157c565b8181528481019084860184860187018a101561138957600080fd5b600095505b838610156113ac57803583526001959095019491860191860161138e565b5098975050505050505050565b6000602082840312156113cb57600080fd5b8135610af381611640565b6000602082840312156113e857600080fd5b8151610af381611640565b60006020828403121561140557600080fd5b5035919050565b600081518084526114248160208601602086016115ad565b601f01601f19169290920160200192915050565b80516001600160a01b0316825260208082015167ffffffffffffffff169083015260408082015115159083015260609081015162ffffff16910152565b600083516114878184602088016115ad565b83519083019061149b8183602088016115ad565b01949350505050565b6001600160a01b03858116825284166020820152604081018390526080606082018190526000906114d79083018461140c565b9695505050505050565b6020808252825182820181905260009190848201906040850190845b8181101561096157611510838551611438565b92840192608092909201916001016114fd565b6020808252825182820181905260009190848201906040850190845b818110156109615783518352928401929184019160010161153f565b602081526000610af3602083018461140c565b608081016104088284611438565b604051601f8201601f1916810167ffffffffffffffff811182821017156115a5576115a561162a565b604052919050565b60005b838110156115c85781810151838201526020016115b0565b83811115610be15750506000910152565b600181811c908216806115ed57607f821691505b6020821081141561160e57634e487b7160e01b600052602260045260246000fd5b50919050565b634e487b7160e01b600052603260045260246000fd5b634e487b7160e01b600052604160045260246000fd5b6001600160e01b031981168114610b0457600080fdfea2646970667358221220d4c17d774cd392cf61dc6984128db5034e6f977b09cf3a7be1d6bfbb0647293964736f6c63430008070033",
  "linkReferences": {},
  "deployedLinkReferences": {}
}