{
  "_format": "hh-sol-artifact-1",
  "contractName": "NFTStaking",
  "sourceName": "contracts/NFTStaking.sol",
  "abi": [
    {
      "inputs": [
        {
          "internalType": "contract StakingERC20",
          "name": "_token",
          "type": "address"
        },
        {
          "internalType": "contract StakingERC721A",
          "name": "_nft",
          "type": "address"
        },
        {
          "internalType": "uint256",
          "name": "_rewardsPerHour",
          "type": "uint256"
        }
      ],
      "stateMutability": "nonpayable",
      "type": "constructor"
    },
    {
      "anonymous": false,
      "inputs": [
        {
          "indexed": true,
          "internalType": "address",
          "name": "owner",
          "type": "address"
        },
        {
          "indexed": false,
          "internalType": "uint256",
          "name": "amount",
          "type": "uint256"
        }
      ],
      "name": "Claimed",
      "type": "event"
    },
    {
      "anonymous": false,
      "inputs": [
        {
          "indexed": true,
          "internalType": "address",
          "name": "previousOwner",
          "type": "address"
        },
        {
          "indexed": true,
          "internalType": "address",
          "name": "newOwner",
          "type": "address"
        }
      ],
      "name": "OwnershipTransferred",
      "type": "event"
    },
    {
      "anonymous": false,
      "inputs": [
        {
          "indexed": true,
          "internalType": "address",
          "name": "owner",
          "type": "address"
        },
        {
          "indexed": false,
          "internalType": "uint256",
          "name": "tokenId",
          "type": "uint256"
        },
        {
          "indexed": false,
          "internalType": "uint256",
          "name": "timeStamp",
          "type": "uint256"
        }
      ],
      "name": "Staked",
      "type": "event"
    },
    {
      "anonymous": false,
      "inputs": [
        {
          "indexed": true,
          "internalType": "address",
          "name": "owner",
          "type": "address"
        },
        {
          "indexed": false,
          "internalType": "uint256",
          "name": "tokenId",
          "type": "uint256"
        },
        {
          "indexed": false,
          "internalType": "uint256",
          "name": "timeStamp",
          "type": "uint256"
        }
      ],
      "name": "Unstaked",
      "type": "event"
    },
    {
      "inputs": [
        {
          "internalType": "uint256[]",
          "name": "tokenIds",
          "type": "uint256[]"
        }
      ],
      "name": "claim",
      "outputs": [],
      "stateMutability": "nonpayable",
      "type": "function"
    },
    {
      "inputs": [
        {
          "internalType": "address",
          "name": "owner",
          "type": "address"
        },
        {
          "internalType": "uint256[]",
          "name": "tokenIds",
          "type": "uint256[]"
        }
      ],
      "name": "getRewardAmount",
      "outputs": [
        {
          "internalType": "uint256",
          "name": "",
          "type": "uint256"
        }
      ],
      "stateMutability": "view",
      "type": "function"
    },
    {
      "inputs": [],
      "name": "owner",
      "outputs": [
        {
          "internalType": "address",
          "name": "",
          "type": "address"
        }
      ],
      "stateMutability": "view",
      "type": "function"
    },
    {
      "inputs": [],
      "name": "renounceOwnership",
      "outputs": [],
      "stateMutability": "nonpayable",
      "type": "function"
    },
    {
      "inputs": [],
      "name": "rewardsPerHour",
      "outputs": [
        {
          "internalType": "uint256",
          "name": "",
          "type": "uint256"
        }
      ],
      "stateMutability": "view",
      "type": "function"
    },
    {
      "inputs": [
        {
          "internalType": "uint256",
          "name": "_amount",
          "type": "uint256"
        }
      ],
      "name": "setRewardsPerHour",
      "outputs": [],
      "stateMutability": "nonpayable",
      "type": "function"
    },
    {
      "inputs": [
        {
          "internalType": "uint256[]",
          "name": "tokenIds",
          "type": "uint256[]"
        }
      ],
      "name": "stake",
      "outputs": [],
      "stateMutability": "nonpayable",
      "type": "function"
    },
    {
      "inputs": [
        {
          "internalType": "address",
          "name": "owner",
          "type": "address"
        }
      ],
      "name": "tokenStakedByOwner",
      "outputs": [
        {
          "internalType": "uint256[]",
          "name": "",
          "type": "uint256[]"
        }
      ],
      "stateMutability": "view",
      "type": "function"
    },
    {
      "inputs": [],
      "name": "totalStaked",
      "outputs": [
        {
          "internalType": "uint256",
          "name": "",
          "type": "uint256"
        }
      ],
      "stateMutability": "view",
      "type": "function"
    },
    {
      "inputs": [
        {
          "internalType": "address",
          "name": "newOwner",
          "type": "address"
        }
      ],
      "name": "transferOwnership",
      "outputs": [],
      "stateMutability": "nonpayable",
      "type": "function"
    },
    {
      "inputs": [
        {
          "internalType": "uint256[]",
          "name": "tokenIds",
          "type": "uint256[]"
        }
      ],
      "name": "unstake",
      "outputs": [],
      "stateMutability": "nonpayable",
      "type": "function"
    }
  ],
  "bytecode": "0x608060405234801561001057600080fd5b5060405161100b38038061100b83398101604081905261002f916100c0565b61003833610070565b600180546001600160a01b039485166001600160a01b031991821617909155600280549390941692169190911790915560045561011b565b600080546001600160a01b038381166001600160a01b0319831681178455604051919092169283917f8be0079c531659141344cd1fd0a4f28419497f9722a3daafe3b4186f6b6457e09190a35050565b6000806000606084860312156100d557600080fd5b83516100e081610103565b60208501519093506100f181610103565b80925050604084015190509250925092565b6001600160a01b038116811461011857600080fd5b50565b610ee18061012a6000396000f3fe608060405234801561001057600080fd5b50600436106100a95760003560e01c80638da5cb5b116100715780638da5cb5b1461010d5780638e7271fa14610128578063ab5d2ce614610131578063b5a5e50914610151578063e449f34114610164578063f2fde38b1461017757600080fd5b80630fbf0a93146100ae5780634c7d857d146100c35780636ba4c138146100e9578063715018a6146100fc578063817b1cd214610104575b600080fd5b6100c16100bc366004610cb9565b61018a565b005b6100d66100d1366004610c64565b610419565b6040519081526020015b60405180910390f35b6100c16100f7366004610cb9565b61051d565b6100c161052e565b6100d660035481565b6000546040516001600160a01b0390911681526020016100e0565b6100d660045481565b61014461013f366004610c23565b610564565b6040516100e09190610d2d565b6100c161015f366004610cfb565b610749565b6100c1610172366004610cb9565b610778565b6100c1610185366004610c23565b610785565b600082829050600360008282546101a19190610dc9565b90915550600090505b82811015610413578383828181106101c4576101c4610e6a565b6002546040516331a9108f60e11b8152602092909202939093013560048201819052945033926001600160a01b03169150636352211e9060240160206040518083038186803b15801561021657600080fd5b505afa15801561022a573d6000803e3d6000fd5b505050506040513d601f19601f8201168201806040525081019061024e9190610c47565b6001600160a01b03161461027d5760405162461bcd60e51b815260040161027490610da6565b60405180910390fd5b600082815260056020526040902054600160b81b900465ffffffffffff16156102d95760405162461bcd60e51b815260206004820152600e60248201526d105b1c9958591e4814dd185ad95960921b6044820152606401610274565b6002546040516323b872dd60e01b8152336004820152306024820152604481018490526001600160a01b03909116906323b872dd90606401600060405180830381600087803b15801561032b57600080fd5b505af115801561033f573d6000803e3d6000fd5b5050604080518581524260208201523393507f1449c6dd7851abc30abf37f57715f492010519147cc2652fbc38202c18a6ee9092500160405180910390a26040805160608101825233815262ffffff808516602080840191825265ffffffffffff42811685870190815260008981526005909352959091209351845492519551909116600160b81b0265ffffffffffff60b81b1995909316600160a01b026001600160b81b03199092166001600160a01b03919091161717929092169190911790558061040b81610e39565b9150506101aa565b50505050565b60008060008060005b858110156105125786868281811061043c5761043c610e6a565b60209081029290920135600081815260058452604090819020815160608101835290546001600160a01b03808216808452600160a01b830462ffffff1697840197909752600160b81b90910465ffffffffffff16928201929092529197509092908b161490506104be5760405162461bcd60e51b815260040161027490610da6565b610e10600454826040015165ffffffffffff16426104dc9190610e22565b6104e69190610e03565b6104f09190610de1565b93506104fc8484610dc9565b925050808061050a90610e39565b915050610422565b509695505050505050565b61052a3383836000610820565b5050565b6000546001600160a01b031633146105585760405162461bcd60e51b815260040161027490610d71565b6105626000610a0f565b565b60606000600260009054906101000a90046001600160a01b03166001600160a01b03166318160ddd6040518163ffffffff1660e01b815260040160206040518083038186803b1580156105b657600080fd5b505afa1580156105ca573d6000803e3d6000fd5b505050506040513d601f19601f820116820180604052508101906105ee9190610d14565b905060008167ffffffffffffffff81111561060b5761060b610e80565b604051908082528060200260200182016040528015610634578160200160208202803683370190505b5090506000805b838110156106a3576000818152600560205260409020546001600160a01b0387811691161415610691578083838151811061067857610678610e6a565b60209081029190910101528161068d81610e39565b9250505b8061069b81610e39565b91505061063b565b5060008167ffffffffffffffff8111156106bf576106bf610e80565b6040519080825280602002602001820160405280156106e8578160200160208202803683370190505b50905060005b8281101561073f5783818151811061070857610708610e6a565b602002602001015182828151811061072257610722610e6a565b60209081029190910101528061073781610e39565b9150506106ee565b5095945050505050565b6000546001600160a01b031633146107735760405162461bcd60e51b815260040161027490610d71565b600455565b61052a3383836001610820565b6000546001600160a01b031633146107af5760405162461bcd60e51b815260040161027490610d71565b6001600160a01b0381166108145760405162461bcd60e51b815260206004820152602660248201527f4f776e61626c653a206e6577206f776e657220697320746865207a65726f206160448201526564647265737360d01b6064820152608401610274565b61081d81610a0f565b50565b60008080805b858110156109445786868281811061084057610840610e6a565b60209081029290920135600081815260058452604090819020815160608101835290546001600160a01b03808216808452600160a01b830462ffffff1697840197909752600160b81b90910465ffffffffffff16928201929092529197509092908b161490506108c25760405162461bcd60e51b815260040161027490610da6565b610e10600454826040015165ffffffffffff16426108e09190610e22565b6108ea9190610e03565b6108f49190610de1565b93506109008484610dc9565b6000868152600560205260409020805465ffffffffffff60b81b1916600160b81b4265ffffffffffff1602179055925081905061093c81610e39565b915050610826565b5080156109b2576001546040516340c10f1960e01b81526001600160a01b03898116600483015260248201849052909116906340c10f1990604401600060405180830381600087803b15801561099957600080fd5b505af11580156109ad573d6000803e3d6000fd5b505050505b83156109c3576109c3878787610a5f565b866001600160a01b03167fd8138f8a3f377c5259ca548e70e4c2de94f129f5a11036a15b69513cba2b426a826040516109fe91815260200190565b60405180910390a250505050505050565b600080546001600160a01b038381166001600160a01b0319831681178455604051919092169283917f8be0079c531659141344cd1fd0a4f28419497f9722a3daafe3b4186f6b6457e09190a35050565b60008282905060036000828254610a769190610e22565b90915550600090505b82811015610bd057838382818110610a9957610a99610e6a565b6020908102929092013560008181526005909352604090922054919350506001600160a01b03163314610afb5760405162461bcd60e51b815260206004820152600a602482015269139bdd0814dd185ad95960b21b6044820152606401610274565b6000828152600560205260409081902080546001600160e81b031916905560025490516323b872dd60e01b81523060048201526001600160a01b03878116602483015260448201859052909116906323b872dd90606401600060405180830381600087803b158015610b6c57600080fd5b505af1158015610b80573d6000803e3d6000fd5b5050604080518581524260208201523393507f7fc4727e062e336010f2c282598ef5f14facb3de68cf8195c2f23e1454b2b74e92500160405180910390a280610bc881610e39565b915050610a7f565b5050505050565b60008083601f840112610be957600080fd5b50813567ffffffffffffffff811115610c0157600080fd5b6020830191508360208260051b8501011115610c1c57600080fd5b9250929050565b600060208284031215610c3557600080fd5b8135610c4081610e96565b9392505050565b600060208284031215610c5957600080fd5b8151610c4081610e96565b600080600060408486031215610c7957600080fd5b8335610c8481610e96565b9250602084013567ffffffffffffffff811115610ca057600080fd5b610cac86828701610bd7565b9497909650939450505050565b60008060208385031215610ccc57600080fd5b823567ffffffffffffffff811115610ce357600080fd5b610cef85828601610bd7565b90969095509350505050565b600060208284031215610d0d57600080fd5b5035919050565b600060208284031215610d2657600080fd5b5051919050565b6020808252825182820181905260009190848201906040850190845b81811015610d6557835183529284019291840191600101610d49565b50909695505050505050565b6020808252818101527f4f776e61626c653a2063616c6c6572206973206e6f7420746865206f776e6572604082015260600190565b6020808252600990820152682737ba1037bbb732b960b91b604082015260600190565b60008219821115610ddc57610ddc610e54565b500190565b600082610dfe57634e487b7160e01b600052601260045260246000fd5b500490565b6000816000190483118215151615610e1d57610e1d610e54565b500290565b600082821015610e3457610e34610e54565b500390565b6000600019821415610e4d57610e4d610e54565b5060010190565b634e487b7160e01b600052601160045260246000fd5b634e487b7160e01b600052603260045260246000fd5b634e487b7160e01b600052604160045260246000fd5b6001600160a01b038116811461081d57600080fdfea2646970667358221220797c7ad25629ebce615fd1dd19dd2172ba3f378e821079e4446e119229a9dea064736f6c63430008070033",
  "linkReferences": {},
  "deployedLinkReferences": {}
}